:10000000FDC000001FC100001DC100001BC1000099
:1000100019C1000017C1000015C1000013C1000084
:1000200011C100000FC100000DC100000BC1000094
:1000300009C1000007C1000005C1000003C10000A4
:1000400001C10000FFC00000FDC00000FBC00000B7
:10005000F9C00000F7C00000F5C00000F3C00000C8
:10006000F1C00000EFC00000EDC00000EBC00000D8
:10007000E9C00000E7C00000E5C00000E3C00000E8
:10008000E1C00000DFC00000DDC00000DBC00000F8
:10009000D9C00000D7C00000D5C00000C8C1000012
:1000A00003C200003EC2000079C20000CBC00000C5
:1000B000C9C00000C7C00000C5C00000C3C0000028
:1000C000C1C00000BFC00000BDC00000BBC0000038
:1000D000B9C00000B7C00000B5C00000B3C0000048
:1000E000B1C00000AFC00000ADC00000ABC0000058
:1000F000A9C00000A7C00000A5C00000A3C0000068
:10010000A1C000009FC000009DC000009BC0000077
:1001100099C0000097C0000095C0000094C0000086
:10012000CFC000000AC1000045C100008BC0000024
:1001300089C0000087C0000085C0000083C00000A7
:1001400081C000007FC000007DC000007BC00000B7
:1001500079C0000077C0000075C0000073C00000C7
:1001600071C000006FC000006DC000006BC00000D7
:1001700069C0000067C0000065C0000063C00000E7
:1001800061C000005FC000005DC000005BC00000F7
:1001900059C0000057C0000055C0000053C0000007
:1001A00051C000004FC000004DC000004BC0000017
:1001B00049C0000047C0000045C0000043C0000027
:1001C00041C000003FC000003DC000003BC0000037
:1001D00039C0000037C0000035C0000033C0000047
:1001E00031C000002FC000002DC000002BC0000057
:1001F00029C0000027C0000025C0000011241FBE38
:10020000CFEFCDBFDFE3DEBF00E00CBF18BE19BEED
:100210001ABE1BBE10E2A0E0B0E2EEE5F6E000E0A0
:100220000BBF02C007900D92A030B107D9F71BBEDB
:1002300020E2A0E0B0E201C01D92A430B207E1F7D5
:10024000F6D10BC2DDCE1F920F920FB60F92112482
:1002500008B60F9218BE09B60F9219BE0BB60F92D0
:100260001BBE2F933F934F935F936F937F938F9317
:100270009F93AF93BF93EF93FF93409124025091CC
:100280002502E0910220F091032061E080E092E0FD
:100290001995FF91EF91BF91AF919F918F917F91B0
:1002A0006F915F914F913F912F910F900BBE0F90E7
:1002B00009BE0F9008BE0F900FBE0F901F901895AB
:1002C0001F920F920FB60F92112408B60F9218BE0C
:1002D00009B60F9219BE0BB60F921BBE2F933F9318
:1002E0004F935F936F937F938F939F93AF93BF933E
:1002F000EF93FF9340912C0250912D02E091022048
:10030000F091032062E080E092E01995FF91EF9177
:10031000BF91AF919F918F917F916F915F914F911D
:100320003F912F910F900BBE0F9009BE0F9008BE0A
:100330000F900FBE0F901F9018951F920F920FB63F
:100340000F92112408B60F9218BE09B60F9219BE6B
:100350000BB60F921BBE2F933F934F935F936F93F8
:100360007F938F939F93AF93BF93EF93FF934091AE
:10037000340250913502E0910220F091032064E0B4
:1003800080E092E01995FF91EF91BF91AF919F911D
:100390008F917F916F915F914F913F912F910F902E
:1003A0000BBE0F9009BE0F9008BE0F900FBE0F90AE
:1003B0001F9018951F920F920FB60F92112408B636
:1003C0000F9218BE09B60F9219BE0BB60F921BBE44
:1003D0002F933F934F935F936F937F938F939F934D
:1003E000AF93BF93EF93FF9340913C0250913D0236
:1003F000E0910220F091032068E080E092E01995FE
:10040000FF91EF91BF91AF919F918F917F916F91EC
:100410005F914F913F912F910F900BBE0F9009BEAE
:100420000F9008BE0F900FBE0F901F9018951F924F
:100430000F920FB60F92112408B60F9218BE09B68C
:100440000F9219BE0BB60F921BBE2F933F934F9383
:100450005F936F937F938F939F93AF93BF93EF932C
:10046000FF934091640250916502E0910020F09169
:10047000012061E080E492E01995FF91EF91BF9136
:10048000AF919F918F917F916F915F914F913F912C
:100490002F910F900BBE0F9009BE0F9008BE0F90CA
:1004A0000FBE0F901F9018951F920F920FB60F92CC
:1004B000112408B60F9218BE09B60F9219BE0BB6DA
:1004C0000F921BBE2F933F934F935F936F937F9336
:1004D0008F939F93AF93BF93EF93FF9340916C02E1
:1004E00050916D02E0910020F091012062E080E4E3
:1004F00092E01995FF91EF91BF91AF919F918F91EC
:100500007F916F915F914F913F912F910F900BBE13
:100510000F9009BE0F9008BE0F900FBE0F901F9056
:1005200018951F920F920FB60F92112408B60F92D2
:1005300018BE09B60F9219BE0BB60F921BBE2F93B1
:100540003F934F935F936F937F938F939F93AF935B
:10055000BF93EF93FF934091740250917502E09125
:100560000020F091012064E080E492E01995FF9171
:10057000EF91BF91AF919F918F917F916F915F911B
:100580004F913F912F910F900BBE0F9009BE0F908E
:1005900008BE0F900FBE0F901F9018951F920F92DC
:1005A0000FB60F92112408B60F9218BE09B60F921B
:1005B00019BE0BB60F921BBE2F933F934F935F93C1
:1005C0006F937F938F939F93AF93BF93EF93FF931B
:1005D00040917C0250917D02E0910020F091012039
:1005E00068E080E492E01995FF91EF91BF91AF919F
:1005F0009F918F917F916F915F914F913F912F913B
:100600000F900BBE0F9009BE0F9008BE0F900FBE4B
:100610000F901F901895089504C0615071098109C9
:1006200091096115710581059105B9F70895F3DF09
:10063000E0ECF7E088E080831482C0ECD7E018E0BB
:100640001C826BE07BE882E090E0E6DF1C836BE0DD
:0E0650007BE882E090E0E0DFF3CFF894FFCF8C
:00000001FF
