:10000000FDC000001FC100001DC100001BC1000099
:1000100019C1000017C1000015C1000013C1000084
:1000200011C100000FC100000DC100000BC1000094
:1000300009C1000007C1000005C1000003C10000A4
:1000400001C10000FFC00000FDC00000FBC00000B7
:10005000F9C00000F7C00000F5C00000F3C00000C8
:10006000F1C00000EFC00000EDC00000EBC00000D8
:10007000E9C00000E7C00000E5C00000E3C00000E8
:10008000E1C00000DFC00000DDC00000DBC00000F8
:10009000D9C00000D7C00000D5C000005FC4000078
:1000A0009AC40000D5C4000010C50000CBC00000F9
:1000B000C9C00000C7C00000C5C00000C3C0000028
:1000C000C1C00000BFC00000BDC00000BBC0000038
:1000D000B9C00000B7C00000B5C00000B3C0000048
:1000E000B1C00000AFC00000ADC00000ABC0000058
:1000F000A9C00000A7C00000A5C00000A3C0000068
:10010000A1C000009FC000009DC000009BC0000077
:1001100099C0000097C0000095C000002BC30000EC
:1001200066C30000A1C30000DCC300008BC0000058
:1001300089C0000087C0000085C0000083C00000A7
:1001400081C000007FC000007DC000007BC00000B7
:1001500079C0000077C0000075C0000073C00000C7
:1001600071C000006FC000006DC000006BC00000D7
:1001700069C0000067C0000065C0000063C00000E7
:1001800061C000005FC000005DC000005BC00000F7
:1001900059C0000057C0000055C0000053C0000007
:1001A00051C000004FC000004DC000004BC0000017
:1001B00049C0000047C0000045C0000043C0000027
:1001C00041C000003FC000003DC000003BC0000037
:1001D00039C0000037C0000035C0000033C0000047
:1001E00031C000002FC000002DC000002BC0000057
:1001F00029C0000027C0000025C0000011241FBE38
:10020000CFEFCDBFDFE3DEBF00E00CBF18BE19BEED
:100210001ABE1BBE10E2A0E0B0E2E8E3F0E100E0AD
:100220000BBF02C007900D92AE30B107D9F71BBECD
:1002300020E2AEE0B0E201C01D92A232B207E1F7C7
:100240002FD5F8C6DDCECF93DF931F92CDB7DEB7A3
:100250008091162090911720E0910E20F0910F20B0
:10026000BE016F5F7F4F19958981082E000C990B95
:100270000F90DF91CF910895FC01918195FFFDCF03
:10028000608380E090E00895FC0191819923ECF770
:10029000808108954F925F926F927F928F929F928A
:1002A000AF92BF92EF92FF920F931F93CF937C0177
:1002B0004A015B0128013901FC01848182FF16C0DB
:1002C000D901C801689412F8B695A79597958795B6
:1002D0001694D1F7B901A801032E36E176956795FA
:1002E000579547953A95D1F7302D15C0D901C801DA
:1002F000689413F8B695A795979587951694D1F7B6
:10030000B901A801032E37E1769567955795479572
:100310003A95D1F7302D88159905AA05BB0508F443
:10032000A2C084169506A606B70608F49EC0F7017B
:10033000848182FD04C0880C991CAA1CBB1CC301CB
:10034000B201A5019401B9D42F3F310541055105F2
:1003500008F48DC08FEF90E0A0E0B0E0C9EF05C0D9
:10036000281739074A075B0758F0880F991FAA1FFB
:10037000BB1FCD3F0CF48160CF5FC73089F74DC004
:10038000CC230CF04AC0D501C401880F991FAA1FC5
:10039000BB1F880F991FAA1FBB1F880F991FAA1F79
:1003A000BB1F481A590A6A0A7B0ACE3FECF48DEF4C
:1003B0009FEF8C1B9109C7FD939504C0440C551CFD
:1003C000661C771C8A95D2F7D501C401B695A7950E
:1003D00097958795BC01CD01640D751D861D971DF0
:1003E000A50194016AD435C083E08C0FA501940166
:1003F00004C0220F331F441F551F8A95D2F7DA011C
:10040000C901B695A79597958795BC01CD01640D57
:10041000751D861D971D51D41CC083E08C0FA5014E
:10042000940104C0220F331F441F551F8A95D2F731
:10043000DA01C901B695A79597958795BC01CD01BD
:10044000640D751D861D971D38D421503109410951
:100450005109832F8F70C295C07FC82BF701C783C6
:10046000268381E018C080E016C080E014C0D5016A
:10047000C401880F991FAA1FBB1F880F991FAA1FAD
:10048000BB1F880F991FAA1FBB1F481A590A6A0A67
:100490007B0AC9EF8CCFCF911F910F91FF90EF9006
:1004A000BF90AF909F908F907F906F905F904F9094
:1004B00008950F931F93CF93DF93EC018B01009767
:1004C00009F436C1803C910521F460E180E05CD301
:1004D0002FC1C03484E0D80721F468E080E054D311
:1004E00027C1C115E4E0DE0721F464E080E04CD3CD
:1004F0001FC1C038F1E0DF0721F462E080E044D39F
:1005000017C1C11581E0D80721F461E080E03CD338
:100510000FC1C038E3E0DE0721F461E081E034D3AD
:1005200007C1C039F3E0DF0721F461E082E02CD39A
:10053000FFC0C11582E0D80721F462E081E024D336
:10054000F7C0C034E2E0DE0721F462E082E01CD3B1
:10055000EFC0C115F3E0DF0721F464E081E014D3BC
:10056000E7C0C03283E0D80721F464E082E00CD316
:10057000DFC0C115E8E0DE0721F461E083E004D3C9
:10058000D7C0C115F9E0DF0721F461E084E0FCD2B7
:10059000CFC0C1158AE0D80721F461E085E0F4D22C
:1005A000C7C0C115EBE0DE0721F461E086E0ECD2C4
:1005B000BFC0C034F8E0DF0721F462E083E0E4D29A
:1005C000B7C0C03489E0D80721F462E084E0DCD20F
:1005D000AFC0C034EAE0DE0721F462E085E0D4D2A7
:1005E000A7C0C034FBE0DF0721F462E086E0CCD294
:1005F0009FC0C03988E0D80721F464E083E0C4D20A
:1006000097C0C039E9E0DE0721F464E084E0BCD2A1
:100610008FC0C039FAE0DF0721F464E085E0B4D28E
:1006200087C0C0398BE0D80721F464E086E0ACD203
:100630007FC0C03CE8E0DE0721F468E083E0A4D29C
:1006400077C0C03CF9E0DF0721F468E084E09CD289
:100650006FC0C03C8AE0D80721F468E085E094D2FE
:1006600067C0C03CEBE0DE0721F468E086E08CD296
:100670005FC0C03AF8E0DF0721F460E183E084D294
:1006800057C0C03A89E0D80721F460E184E07CD209
:100690004FC0C03AEAE0DE0721F460E185E074D2A1
:1006A00047C0C03AFBE0DF0721F460E186E06CD28E
:1006B0003FC0C03B88E0D80721F460E283E064D209
:1006C00037C0C03BE9E0DE0721F460E284E05CD2A1
:1006D0002FC0C03BFAE0DF0721F460E285E054D28E
:1006E00027C0C03B8BE0D80721F460E286E04CD203
:1006F0001FC0C038E4E0DE0721F460E483E044D2A8
:1007000017C0C039F4E0DF0721F460E484E03CD294
:100710000FC0C03A84E0D80721F460E485E034D209
:1007200007C0C03BE4E0DE0719F460E486E02CD2A9
:100730008D818F738D83F80195818481892B9681BA
:10074000911198E0892B8D83F8014081518162815C
:10075000738100E814E82EE130E0CE019BDD9C813E
:1007600098609C839C8190619C83DF91CF911F91C5
:100770000F9108951F920F920FB60F92112408B691
:100780000F9218BE09B60F9219BE0BB60F921BBE80
:100790002F933F934F935F936F937F938F939F9389
:1007A000AF93BF93EF93FF934091240250912502A2
:1007B000E0911220F091132061E080E092E0199521
:1007C000FF91EF91BF91AF919F918F917F916F9129
:1007D0005F914F913F912F910F900BBE0F9009BEEB
:1007E0000F9008BE0F900FBE0F901F9018951F928C
:1007F0000F920FB60F92112408B60F9218BE09B6C9
:100800000F9219BE0BB60F921BBE2F933F934F93BF
:100810005F936F937F938F939F93AF93BF93EF9368
:10082000FF9340912C0250912D02E0911220F09103
:10083000132062E080E092E01995FF91EF91BF9163
:10084000AF919F918F917F916F915F914F913F9168
:100850002F910F900BBE0F9009BE0F9008BE0F9006
:100860000FBE0F901F9018951F920F920FB60F9208
:10087000112408B60F9218BE09B60F9219BE0BB616
:100880000F921BBE2F933F934F935F936F937F9372
:100890008F939F93AF93BF93EF93FF934091340255
:1008A00050913502E0911220F091132064E080E035
:1008B00092E01995FF91EF91BF91AF919F918F9128
:1008C0007F916F915F914F913F912F910F900BBE50
:1008D0000F9009BE0F9008BE0F900FBE0F901F9093
:1008E00018951F920F920FB60F92112408B60F920F
:1008F00018BE09B60F9219BE0BB60F921BBE2F93EE
:100900003F934F935F936F937F938F939F93AF9397
:10091000BF93EF93FF9340913C0250913D02E091D1
:100920001220F091132068E080E092E01995FF9189
:10093000EF91BF91AF919F918F917F916F915F9157
:100940004F913F912F910F900BBE0F9009BE0F90CA
:1009500008BE0F900FBE0F901F9018951F920F9218
:100960000FB60F92112408B60F9218BE09B60F9257
:1009700019BE0BB60F921BBE2F933F934F935F93FD
:100980006F937F938F939F93AF93BF93EF93FF9357
:100990004091640250916502E0911020F091112085
:1009A00061E080E492E01995FF91EF91BF91AF91E2
:1009B0009F918F917F916F915F914F913F912F9177
:1009C0000F900BBE0F9009BE0F9008BE0F900FBE88
:1009D0000F901F9018951F920F920FB60F9211242F
:1009E00008B60F9218BE09B60F9219BE0BB60F9239
:1009F0001BBE2F933F934F935F936F937F938F9380
:100A00009F93AF93BF93EF93FF9340916C025091EC
:100A10006D02E0911020F091112062E080E492E0FC
:100A20001995FF91EF91BF91AF919F918F917F9118
:100A30006F915F914F913F912F910F900BBE0F904F
:100A400009BE0F9008BE0F900FBE0F901F90189513
:100A50001F920F920FB60F92112408B60F9218BE74
:100A600009B60F9219BE0BB60F921BBE2F933F9380
:100A70004F935F936F937F938F939F93AF93BF93A6
:100A8000EF93FF934091740250917502E091102012
:100A9000F091112064E080E492E01995FF91EF91CC
:100AA000BF91AF919F918F917F916F915F914F9186
:100AB0003F912F910F900BBE0F9009BE0F9008BE73
:100AC0000F900FBE0F901F9018951F920F920FB6A8
:100AD0000F92112408B60F9218BE09B60F9219BED4
:100AE0000BB60F921BBE2F933F934F935F936F9361
:100AF0007F938F939F93AF93BF93EF93FF93409117
:100B00007C0250917D02E0911020F091112068E06C
:100B100080E492E01995FF91EF91BF91AF919F9181
:100B20008F917F916F915F914F913F912F910F9096
:100B30000BBE0F9009BE0F9008BE0F900FBE0F9016
:100B40001F901895682F8091162090911720E091A2
:100B50001420F0911520199599231CF081E090E064
:100B600008958FEF9FEF08958FEF8093700080932B
:100B7000710080937200809373008093740080935F
:100B80007500809376000895CF93DF931F92CDB7C1
:100B9000DEB79FB79983F8949981E82FF0E0E05988
:100BA000FF4F60958081682360839FBF0F90DF9126
:100BB000CF910895CF93DF93EB0166DB8883DF91BC
:100BC000CF91089559CB0895CF93DF93CDB7DEB77A
:100BD0002797CDBFDEBF60E185E0D6DFE0E8F6E035
:100BE00080818860808380EA9AE0809316209093C9
:100BF000172082EE95E080931420909315208AEDC3
:100C000095E080930E2090930F20E6E0F0E284813F
:100C10008D8385818E8386818F8380819181A2815E
:100C2000B38189839A83AB83BC8360E185E0ACDFC9
:100C3000BE016F5F7F4F80EA9AE03BDC63E271E0C8
:100C400082EA95E06BD02796CDBFDEBFDF91CF91D2
:100C50000895CF93DF93EC0161E083E095DF64E0DA
:100C600083E092DFE0E0F8E087E0808383E0818347
:100C7000C6A3D7A34091260A5091270A26A137A1DF
:100C8000ADECBCEC3CD0969587959695879596955E
:100C90008795481B590B40A751A7DF91CF91089525
:100CA00063DFE0ECF7E088E08083148283E294EF76
:100CB000D0DF8ADF80E090E00895A1E21A2EAA1B1F
:100CC000BB1BFD010DC0AA1FBB1FEE1FFF1FA217FC
:100CD000B307E407F50720F0A21BB30BE40BF50BF9
:100CE000661F771F881F991F1A9469F76095709582
:100CF000809590959B01AC01BD01CF010895A29F05
:100D0000B001B39FC001A39F700D811D1124911DDF
:100D1000B29F700D811D1124911D08950F931F9393
:100D2000CF93DF93009731F46115710519F480E0DA
:100D300090E039C08B01EC016EE070E081E090E062
:100D400037D0FC01892B99F380E8838301151105C5
:100D500071F00287138781E8838380911820909136
:100D60001920892B21F4E0931820F0931920209763
:100D7000C9F0C087D18783818260838380911A20E4
:100D800090911B20892B71F4E0931A20F0931B2083
:100D900080911C2090911D20892B21F4E0931C2030
:100DA000F0931D20CF01DF91CF911F910F910895F6
:100DB0000F931F93CF93DF93869F8001879F100D22
:100DC000969F100D1124C8010DD0EC01009721F061
:100DD000A80160E070E027D1CE01DF91CF911F9193
:100DE0000F9108950F931F93CF93DF938230910556
:100DF00010F482E090E0E0912020F091212020E0AA
:100E000030E0A0E0B0E0309719F1408151810281DB
:100E1000138148175907C8F08417950769F410978C
:100E200031F012960C93129713961C9327C00093DF
:100E300020201093212022C02115310519F04217DE
:100E4000530718F49A01BD01EF01DF01F801DBCF70
:100E500021153105F9F0281B390B2430310580F4B8
:100E60008A819B816115710521F0FB018283938347
:100E700004C08093202090932120FE01329644C02C
:100E8000FE01E20FF31F81939193225031092883D1
:100E900039833AC020911E2030911F20232B41F42A
:100EA000209102203091032020931E2030931F2098
:100EB00020910020309101202115310541F42DB7FA
:100EC0003EB74091042050910520241B350BE09142
:100ED0001E20F0911F20E217F307A0F42E1B3F0BFA
:100EE0002817390778F0AC014E5F5F4F241735079C
:100EF00048F04E0F5F1F40931E2050931F20819398
:100F0000919302C0E0E0F0E0CF01DF91CF911F911B
:100F10000F910895CF93DF93009709F481C0FC01EE
:100F2000329712821382A0912020B0912120109735
:100F300081F420813181820F931F20911E203091F6
:100F40001F202817390751F5E0931E20F0931F202A
:100F500067C0ED0120E030E0CE17DF0740F44A81A2
:100F60005B819E0141155105F1F0EA01F5CFC28385
:100F7000D38340815181840F951FC817D90759F435
:100F800088819981840F951F0296808391838A813D
:100F90009B81828393832115310529F4E0932020DE
:100FA000F09321203DC0E901EA83FB8349915991E7
:100FB000C40FD51FEC17FD0761F480819181840F68
:100FC000951F0296E90188839983828193818A83A0
:100FD0009B83E0E0F0E012968D919C91139700972F
:100FE00019F0FD01DC01F7CF8D919C9111979D01C6
:100FF0002E5F3F4F820F931F20911E2030911F20A4
:101000002817390769F4309729F41092202010929C
:10101000212002C012821382A0931E20B0931F20B1
:10102000DF91CF910895DC0101C06D934150504094
:08103000E0F70895F894FFCFEA
:0E10380000002220200080250000030001009F
:00000001FF
