S01800004F6E65204D6F6E7468205465616D20342E73726563C9
S1130000FDC0000020C100001EC100001CC1000092
S11300101AC1000018C1000016C1000014C100007C
S113002012C1000010C100000EC100000CC100008C
S11300300AC1000008C1000006C1000004C100009C
S113004002C1000000C10000FEC00000FCC00000AE
S1130050FAC00000F8C00000F6C00000F4C00000C0
S1130060F2C00000F0C00000EEC00000ECC00000D0
S1130070EAC00000E8C00000E6C00000E4C00000E0
S1130080E2C00000E0C00000DEC00000DCC00000F0
S1130090DAC00000D8C00000D6C0000060C4000070
S11300A09BC40000D6C4000011C50000CCC00000F1
S11300B0CAC00000C8C00000C6C00000C4C0000020
S11300C0C2C00000C0C00000BEC00000BCC0000030
S11300D0BAC00000B8C00000B6C00000B4C0000040
S11300E0B2C00000B0C00000AEC00000ACC0000050
S11300F0AAC00000A8C00000A6C00000A4C0000060
S1130100A2C00000A0C000009EC000009CC000006F
S11301109AC0000098C0000096C000002CC30000E4
S113012067C30000A2C30000DDC300008CC0000050
S11301308AC0000088C0000086C0000084C000009F
S113014082C0000080C000007EC000007CC00000AF
S11301507AC0000078C0000076C0000074C00000BF
S113016072C0000070C000006EC000006CC00000CF
S11301706AC0000068C0000066C0000064C00000DF
S113018062C0000060C000005EC000005CC00000EF
S11301905AC0000058C0000056C0000054C00000FF
S11301A052C0000050C000004EC000004CC000000F
S11301B04AC0000048C0000046C0000044C000001F
S11301C042C0000040C000003EC000003CC000002F
S11301D03AC0000038C0000036C0000034C000003F
S11301E032C0000030C000002EC000002CC000004F
S11301F02AC0000028C0000026C0000011241FBE31
S1130200CFEFCDBFDFE3DEBF00E00CBF18BE19BEE9
S11302101ABE1BBE10E2A0E0B0E2EAE4F6E100E0A0
S11302200BBF02C007900D92AE31B107D9F71BBEC8
S113023020E2AEE1B0E201C01D92A233B207E1F7C1
S11302407ED50C94230BDCCECF93DF931F92CDB7D6
S1130250DEB78091262090912720E0911E20F09116
S11302601F20BE016F5F7F4F19958981082E000CF6
S1130270990B0F90DF91CF910895FC01918195FF27
S1130280FDCF608380E090E00895FC019181992383
S1130290ECF7808108954F925F926F927F928F92D4
S11302A09F92AF92BF92EF92FF920F931F93CF93BF
S11302B07C014A015B0128013901FC01848182FF30
S11302C016C0D901C801689412F8B695A7959795F8
S11302D087951694D1F7B901A801032E36E17695D6
S11302E06795579547953A95D1F7302D15C0D901A3
S11302F0C801689413F8B695A795979587951694B1
S1130300D1F7B901A801032E37E176956795579582
S113031047953A95D1F7302D88159905AA05BB055F
S113032008F4A2C084169506A606B70608F49EC073
S1130330F701848182FD04C0880C991CAA1CBB1C93
S1130340C301B201A501940107D52F3F3105410531
S1130350510508F48DC08FEF90E0A0E0B0E0C9EF44
S113036005C0281739074A075B0758F0880F991FFB
S1130370AA1FBB1FCD3F0CF48160CF5FC73089F744
S11303804DC0CC230CF04AC0D501C401880F991F7D
S1130390AA1FBB1F880F991FAA1FBB1F880F991F75
S11303A0AA1FBB1F481A590A6A0A7B0ACE3FECF4FB
S11303B08DEF9FEF8C1B9109C7FD939504C0440CEE
S11303C0551C661C771C8A95D2F7D501C401B695D5
S11303D0A79597958795BC01CD01640D751D861D64
S11303E0971DA5019401B8D435C083E08C0FA501F5
S11303F0940104C0220F331F441F551F8A95D2F75E
S1130400DA01C901B695A79597958795BC01CD01E9
S1130410640D751D861D971D9FD41CC083E08C0F31
S1130420A501940104C0220F331F441F551F8A9550
S1130430D2F7DA01C901B695A79597958795BC01BE
S1130440CD01640D751D861D971D86D4215031097B
S113045041095109832F8F70C295C07FC82BF701C2
S1130460C783268381E018C080E016C080E014C0F2
S1130470D501C401880F991FAA1FBB1F880F991F9C
S1130480AA1FBB1F880F991FAA1FBB1F481A590A0E
S11304906A0A7B0AC9EF8CCFCF911F910F91FF900D
S11304A0EF90BF90AF909F908F907F906F905F90F0
S11304B04F9008950F931F93CF93DF93EC018B011B
S11304C0009709F436C1803C910521F460E180E095
S11304D05CD32FC1C03484E0D80721F468E080E005
S11304E054D327C1C115E4E0DE0721F464E080E0C1
S11304F04CD31FC1C038F1E0DF0721F462E080E093
S113050044D317C1C11581E0D80721F461E080E02C
S11305103CD30FC1C038E3E0DE0721F461E081E0A1
S113052034D307C1C039F3E0DF0721F461E082E08E
S11305302CD3FFC0C11582E0D80721F462E081E02A
S113054024D3F7C0C034E2E0DE0721F462E082E0A5
S11305501CD3EFC0C115F3E0DF0721F464E081E0B0
S113056014D3E7C0C03283E0D80721F464E082E00A
S11305700CD3DFC0C115E8E0DE0721F461E083E0BD
S113058004D3D7C0C115F9E0DF0721F461E084E0AA
S1130590FCD2CFC0C1158AE0D80721F461E085E020
S11305A0F4D2C7C0C115EBE0DE0721F461E086E0B8
S11305B0ECD2BFC0C034F8E0DF0721F462E083E08E
S11305C0E4D2B7C0C03489E0D80721F462E084E003
S11305D0DCD2AFC0C034EAE0DE0721F462E085E09B
S11305E0D4D2A7C0C034FBE0DF0721F462E086E088
S11305F0CCD29FC0C03988E0D80721F464E083E0FE
S1130600C4D297C0C039E9E0DE0721F464E084E095
S1130610BCD28FC0C039FAE0DF0721F464E085E082
S1130620B4D287C0C0398BE0D80721F464E086E0F7
S1130630ACD27FC0C03CE8E0DE0721F468E083E090
S1130640A4D277C0C03CF9E0DF0721F468E084E07D
S11306509CD26FC0C03C8AE0D80721F468E085E0F2
S113066094D267C0C03CEBE0DE0721F468E086E08A
S11306708CD25FC0C03AF8E0DF0721F460E183E088
S113068084D257C0C03A89E0D80721F460E184E0FD
S11306907CD24FC0C03AEAE0DE0721F460E185E095
S11306A074D247C0C03AFBE0DF0721F460E186E082
S11306B06CD23FC0C03B88E0D80721F460E283E0FD
S11306C064D237C0C03BE9E0DE0721F460E284E095
S11306D05CD22FC0C03BFAE0DF0721F460E285E082
S11306E054D227C0C03B8BE0D80721F460E286E0F7
S11306F04CD21FC0C038E4E0DE0721F460E483E09C
S113070044D217C0C039F4E0DF0721F460E484E088
S11307103CD20FC0C03A84E0D80721F460E485E0FD
S113072034D207C0C03BE4E0DE0719F460E486E09D
S11307302CD28D818F738D83F80195818481892BCF
S11307409681911198E0892B8D83F8014081518124
S11307506281738100E814E82EE130E0CE019BDD74
S11307609C8198609C839C8190619C83DF91CF9154
S11307701F910F9108951F920F920FB60F9211249B
S113078008B60F9218BE09B60F9219BE0BB60F9297
S11307901BBE2F933F934F935F936F937F938F93DE
S11307A09F93AF93BF93EF93FF9340912402509193
S11307B02502E0912220F091232061E080E092E084
S11307C01995FF91EF91BF91AF919F918F917F9177
S11307D06F915F914F913F912F910F900BBE0F90AE
S11307E009BE0F9008BE0F900FBE0F901F90189572
S11307F01F920F920FB60F92112408B60F9218BED3
S113080009B60F9219BE0BB60F921BBE2F933F93DE
S11308104F935F936F937F938F939F93AF93BF9304
S1130820EF93FF9340912C0250912D02E0912220EE
S1130830F091232062E080E092E01995FF91EF911E
S1130840BF91AF919F918F917F916F915F914F91E4
S11308503F912F910F900BBE0F9009BE0F9008BED1
S11308600F900FBE0F901F9018951F920F920FB606
S11308700F92112408B60F9218BE09B60F9219BE32
S11308800BB60F921BBE2F933F934F935F936F93BF
S11308907F938F939F93AF93BF93EF93FF93409175
S11308A0340250913502E0912220F091232064E03B
S11308B080E092E01995FF91EF91BF91AF919F91E4
S11308C08F917F916F915F914F913F912F910F90F5
S11308D00BBE0F9009BE0F9008BE0F900FBE0F9075
S11308E01F9018951F920F920FB60F92112408B6FD
S11308F00F9218BE09B60F9219BE0BB60F921BBE0B
S11309002F933F934F935F936F937F938F939F9313
S1130910AF93BF93EF93FF9340913C0250913D02FC
S1130920E0912220F091232068E080E092E0199584
S1130930FF91EF91BF91AF919F918F917F916F91B3
S11309405F914F913F912F910F900BBE0F9009BE75
S11309500F9008BE0F900FBE0F901F9018951F9216
S11309600F920FB60F92112408B60F9218BE09B653
S11309700F9219BE0BB60F921BBE2F933F934F934A
S11309805F936F937F938F939F93AF93BF93EF93F3
S1130990FF934091640250916502E0912020F09110
S11309A0212061E080E492E01995FF91EF91BF91DD
S11309B0AF919F918F917F916F915F914F913F91F3
S11309C02F910F900BBE0F9009BE0F9008BE0F9091
S11309D00FBE0F901F9018951F920F920FB60F9293
S11309E0112408B60F9218BE09B60F9219BE0BB6A1
S11309F00F921BBE2F933F934F935F936F937F93FD
S1130A008F939F93AF93BF93EF93FF9340916C02A7
S1130A1050916D02E0912020F091212062E080E469
S1130A2092E01995FF91EF91BF91AF919F918F91B2
S1130A307F916F915F914F913F912F910F900BBEDA
S1130A400F9009BE0F9008BE0F900FBE0F901F901D
S1130A5018951F920F920FB60F92112408B60F9299
S1130A6018BE09B60F9219BE0BB60F921BBE2F9378
S1130A703F934F935F936F937F938F939F93AF9322
S1130A80BF93EF93FF934091740250917502E091EC
S1130A902020F091212064E080E492E01995FF91F8
S1130AA0EF91BF91AF919F918F917F916F915F91E2
S1130AB04F913F912F910F900BBE0F9009BE0F9055
S1130AC008BE0F900FBE0F901F9018951F920F92A3
S1130AD00FB60F92112408B60F9218BE09B60F92E2
S1130AE019BE0BB60F921BBE2F933F934F935F9388
S1130AF06F937F938F939F93AF93BF93EF93FF93E2
S1130B0040917C0250917D02E0912020F0912120BF
S1130B1068E080E492E01995FF91EF91BF91AF9165
S1130B209F918F917F916F915F914F913F912F9101
S1130B300F900BBE0F9009BE0F9008BE0F900FBE12
S1130B400F901F901895682F809126209091272050
S1130B50E0912420F0912520199599231CF081E03F
S1130B6090E008958FEF9FEF08958FEF80937000CA
S1130B70809371008093720080937300809374005B
S1130B8080937500809376000895CF93DF931F922E
S1130B90CDB7DEB79FB79983F8949981E82FF0E039
S1130BA0E059FF4F60958081682360839FBF0F9059
S1130BB0DF91CF9108954091CA01E62FF72F8093DA
S1130BC0CA0184914093CA010895CF93DF93EB0146
S1130BD05CDB8883DF91CF9108954FCB0895CF9349
S1130BE0DF93CDB7DEB72797CDBFDEBF60E185E0E9
S1130BF0CCDFE0E8F6E080818860808380EA9AE0D8
S1130C0080932620909327208DEE95E080932420D6
S1130C109093252085EE95E080931E2090931F20CD
S1130C20E6E0F0E284818D8385818E8386818F83E3
S1130C3080819181A281B38189839A83AB83BC83B0
S1130C4060E185E0A2DFBE016F5F7F4F80EA9AE03A
S1130C5031DC64E271E083EA95E0AFD02796CDBF42
S1130C60DEBFDF91CF910895CF93DF93EC0161E074
S1130C7083E08BDF64E083E088DFE0E0F8E087E096
S1130C80808383E08183C6A3D7A34091260A509131
S1130C90270A26A137A1ADECBCEC80D096958795A8
S1130CA09695879596958795481B590B40A751A70C
S1130CB0DF91CF910895FF920F931F93CF93DF930A
S1130CC062E081E062DFFF24F394F0920006C0E06A
S1130CD0D2E0F882198280E18A8385E08C8361E224
S1130CE070E082E068DF082F10E0102F002760E238
S1130CF070E082E060DF082B0C871D87F8A219A240
S1130D00DF91CF911F910F91FF900895E0E0F2E001
S1130D1080A1806880A383A18823E9F3E0E0F2E066
S1130D2013A284A195A19F938F938DE090E29F934A
S1130D308F938DD00F900F900F900F90089515DF23
S1130D40E0ECF7E088E08083148283E294EF8CDFA8
S1130D5046DFB1DFDBDFFECFA1E21A2EAA1BBB1BED
S1130D60FD010DC0AA1FBB1FEE1FFF1FA217B30773
S1130D70E407F50720F0A21BB30BE40BF50B661F89
S1130D80771F881F991F1A9469F76095709580954D
S1130D9090959B01AC01BD01CF010895A29FB001C4
S1130DA0B39FC001A39F700D811D1124911DB29F9B
S1130DB0700D811D1124911D08950F931F93CF93DE
S1130DC0DF93009731F46115710519F480E090E028
S1130DD039C08B01EC016EE070E081E090E041D21B
S1130DE0FC01892B99F380E883830115110571F0C7
S1130DF00287138781E8838380912820909129209A
S1130E00892B21F4E0932820F09329202097C9F01E
S1130E10C087D18783818260838380912A209091C7
S1130E202B20892B71F4E0932A20F0932B208091BE
S1130E302C2090912D20892B21F4E0932C20F093E9
S1130E402D20CF01DF91CF911F910F910895CF9362
S1130E50DF93CDB7DEB7AE014A5F5F4FFA01619110
S1130E607191AF0180912A2090912B2003D0DF91C2
S1130E70CF9108952F923F924F925F926F927F92FB
S1130E808F929F92AF92BF92CF92DF92EF92FF9296
S1130E900F931F93CF93DF93CDB7DEB72B97CDBFBF
S1130EA0DEBF6C017B018A01FC01168217828381FB
S1130EB081FFBFC1CE0101963C01F6019381F70188
S1130EC093FD859193FF81917F01882309F4ADC13E
S1130ED0853239F493FD859193FF81917F018532A9
S1130EE021F4B60190E015D3E8CF912C212C312CBC
S1130EF0FFE1F315D8F08B3279F038F4803279F0D1
S1130F008332A1F4232D20611DC08D3261F0803322
S1130F1069F4232D216016C0832D8260382EE32DC1
S1130F20E4603E2E2AC0F32DF8601DC037FC2DC0AE
S1130F3020ED280F2A3040F08E32B9F436FC75C10A
S1130F40232D2064322E19C036FE06C08AE0989EF6
S1130F50200D1124922E11C0EAE02E9E200D1124A2
S1130F60222EF32DF0623F2E08C08C3621F4832DFF
S1130F708068382E02C0883641F4F70193FD8591CC
S1130F8093FF81917F018111B3CF982F9F7D955459
S1130F90933028F40C5F1F4F9FE399830DC0833671
S1130FA031F0833771F0833509F055C020C0F80162
S1130FB0808189830E5F1F4F88248394912C530171
S1130FC012C02801F2E04F0E511CF801A080B1803C
S1130FD036FE03C0692D70E002C06FEF7FEFC501DC
S1130FE08DD24C018201F32DFF773F2E15C02801CD
S1130FF022E0420E511CF801A080B18036FE03C0ED
S1131000692D70E002C06FEF7FEFC50165D24C011E
S1131010F32DF0683F2E820133FC19C0822D90E03D
S113102088169906A0F4B60180E290E072D22A9460
S1131030F5CFF50137FC859137FE81915F01B6014B
S113104090E067D221102A9421E0821A9108811439
S1131050910479F7E1C0843611F0893639F5F80145
S113106037FE07C060817181828193810C5F1F4FBD
S113107008C060817181072E000C880B990B0E5FEC
S11310801F4FF32DFF763F2E97FF09C09095809553
S1131090709561957F4F8F4F9F4FF0683F2E2AE0E8
S11310A030E0A30172D2882E861844C0853731F40B
S11310B0232D2F7EB22E2AE030E025C0932D997F78
S11310C0B92E8F36C1F018F4883579F0AEC0803768
S11310D019F0883721F0A9C0E92FE061BE2EB4FED3
S11310E00DC0FB2DF460BF2E09C034FE0AC0292FA9
S11310F02660B22E06C028E030E005C020E130E0D2
S113110002C020E132E0F801B7FE07C060817181BE
S1131110828193810C5F1F4F06C06081718180E0E2
S113112090E00E5F1F4FA30130D2882E8618FB2D4E
S1131130FF773F2E36FE0DC0232D2E7FA22E89145D
S113114058F434FE0BC032FC09C0832D8E7EA82EC9
S113115005C0B82CA32C03C0B82C01C0B92CA4FE24
S11311600FC0FE01E80DF11D8081803321F49A2D1A
S1131170997EA92E09C0A2FE06C0B394B39404C0FC
S11311808A2D867809F0B394A3FC10C0A0FE06C093
S1131190B21480F4280C922C9B180DC0B21458F48D
S11311A0B60180E290E0B5D1B394F8CFB21418F44C
S11311B02B1802C0982C212CA4FE0FC0B60180E38A
S11311C090E0A7D1A2FE16C0A1FC03C088E790E07E
S11311D002C088E590E0B6010CC08A2D867851F0F3
S11311E0A1FE02C08BE201C080E2A7FC8DE2B60141
S11311F090E08FD1891430F4B60180E390E089D176
S11312009A94F8CF8A94F301E80DF11D8081B60118
S113121090E07FD18110F6CF222009F44ECEB601A2
S113122080E290E076D12A94F7CFF6018681978107
S113123002C08FEF9FEF2B96CDBFDEBFDF91CF9122
S11312401F910F91FF90EF90DF90CF90BF90AF90E0
S11312509F908F907F906F905F904F903F902F90D2
S113126008950F931F93CF93DF93869F8001879FE9
S1131270100D969F100D1124C8010DD0EC0100979C
S113128021F0A80160E070E032D1CE01DF91CF916E
S11312901F910F9108950F931F93CF93DF93823083
S11312A0910510F482E090E0E0913020F09131203B
S11312B020E030E0A0E0B0E0309719F140815181A6
S11312C00281138148175907C8F08417950769F4F8
S11312D0109731F012960C93129713961C9327C013
S11312E0009330201093312022C02115310519F0CC
S11312F04217530718F49A01BD01EF01DF01F80109
S1131300DBCF21153105F9F0281B390B24303105C9
S113131080F48A819B816115710521F0FB01828330
S1131320938304C08093302090933120FE01329641
S113133044C0FE01E20FF31F8193919322503109BF
S1131340288339833AC020912E2030912F20232BDB
S113135041F4209102203091032020932E203093D9
S11313602F2020910020309101202115310541F4D6
S11313702DB73EB74091042050910520241B350B16
S1131380E0912E20F0912F20E217F307A0F42E1BFA
S11313903F0B2817390778F0AC014E5F5F4F2417D5
S11313A0350748F04E0F5F1F40932E2050932F2097
S11313B08193919302C0E0E0F0E0CF01DF91CF91FF
S11313C01F910F910895CF93DF93009709F481C083
S11313D0FC01329712821382A0913020B091312007
S11313E0109781F420813181820F931F20912E2048
S11313F030912F202817390751F5E0932E20F093D0
S11314002F2067C0ED0120E030E0CE17DF0740F465
S11314104A815B819E0141155105F1F0EA01F5CF46
S1131420C283D38340815181840F951FC817D90784
S113143059F488819981840F951F02968083918342
S11314408A819B81828393832115310529F4E0935A
S11314503020F09331203DC0E901EA83FB834991B8
S11314605991C40FD51FEC17FD0761F48081918158
S1131470840F951F0296E901888399838281938161
S11314808A839B83E0E0F0E012968D919C91139700
S1131490009719F0FD01DC01F7CF8D919C91119714
S11314A09D012E5F3F4F820F931F20912E2030917C
S11314B02F202817390769F4309729F41092302027
S11314C01092312002C012821382A0932E20B09376
S11314D02F20DF91CF910895FC0105906150704059
S11314E00110D8F7809590958E0F9F1F0895DC0109
S11314F001C06D9341505040E0F70895FC016150E4
S1131500704001900110D8F7809590958E0F9F1F21
S113151008950F931F93CF93DF93FB01238121FD44
S113152003C08FEF9FEF2CC022FF16C04681578166
S1131530248135814217530744F4A081B1819D0170
S11315402F5F3F4F208331838C93268137812F5F18
S11315503F4F2683378314C08B01EC01FB010084C9
S1131560F185E02D1995892BE1F6D80116968D9118
S11315709C911797019616968D939C931797CE017D
S1131580DF91CF911F910F910895FA01AA27283076
S113159051F1203181F1E8946F936E7F6E5F7F4F3C
S11315A08F4F9F4FAF4FB1E03ED0B4E03CD0670FB8
S11315B0781F891F9A1FA11D680F791F8A1F911D0B
S11315C0A11D6A0F711D811D911DA11D20D009F45B
S11315D068943F912AE0269F11243019305D31939D
S11315E0DEF6CF010895462F4770405D4193B3E086
S11315F00FD0C9F7F6CF462F4F70405D4A3318F02D
S1131600495D31FD4052419302D0A9F7EACFB4E0DD
S1131610A6959795879577956795BA95C9F7009795
S11316206105710508959B01AC010A2E0694579536
S1131630479537952795BA95C9F7620F731F841F8D
S10D1640951FA01D0895F894FFCF34
S113164A0000322020008025000003000161646349
S111165A2072656164696E67203D202575006D
S9030000FC
